{
  "contractName": "SimpleStudy",
  "abi": [
    {
      "constant": false,
      "inputs": [
        {
          "name": "patientAddress",
          "type": "address"
        },
        {
          "name": "firstName",
          "type": "string"
        },
        {
          "name": "lastName",
          "type": "string"
        },
        {
          "name": "age",
          "type": "uint8"
        },
        {
          "name": "gender",
          "type": "string"
        }
      ],
      "name": "submitQuestionaireForPatient",
      "outputs": [],
      "payable": false,
      "stateMutability": "nonpayable",
      "type": "function"
    },
    {
      "constant": false,
      "inputs": [
        {
          "name": "patientAddress",
          "type": "address"
        },
        {
          "name": "weekNumber",
          "type": "uint256"
        },
        {
          "name": "tempData",
          "type": "uint256"
        }
      ],
      "name": "submitTemperature",
      "outputs": [],
      "payable": false,
      "stateMutability": "nonpayable",
      "type": "function"
    },
    {
      "constant": true,
      "inputs": [],
      "name": "getStudyOwner",
      "outputs": [
        {
          "name": "",
          "type": "address"
        }
      ],
      "payable": false,
      "stateMutability": "view",
      "type": "function"
    },
    {
      "constant": false,
      "inputs": [
        {
          "name": "fullName",
          "type": "string"
        },
        {
          "name": "patientAddress",
          "type": "address"
        }
      ],
      "name": "addPatient",
      "outputs": [],
      "payable": false,
      "stateMutability": "nonpayable",
      "type": "function"
    },
    {
      "constant": false,
      "inputs": [
        {
          "name": "userName",
          "type": "string"
        }
      ],
      "name": "addProvider",
      "outputs": [
        {
          "name": "",
          "type": "string"
        }
      ],
      "payable": false,
      "stateMutability": "nonpayable",
      "type": "function"
    },
    {
      "constant": true,
      "inputs": [
        {
          "name": "patientAddress",
          "type": "address"
        }
      ],
      "name": "getPatientName",
      "outputs": [
        {
          "name": "",
          "type": "string"
        },
        {
          "name": "",
          "type": "string"
        },
        {
          "name": "",
          "type": "uint8"
        },
        {
          "name": "",
          "type": "string"
        },
        {
          "name": "",
          "type": "uint256"
        },
        {
          "name": "",
          "type": "uint256"
        },
        {
          "name": "",
          "type": "uint256"
        },
        {
          "name": "",
          "type": "uint256"
        }
      ],
      "payable": false,
      "stateMutability": "view",
      "type": "function"
    },
    {
      "inputs": [
        {
          "name": "patientAddress",
          "type": "address"
        }
      ],
      "payable": false,
      "stateMutability": "view",
      "type": "function",
      "constant": true,
      "name": "getStudyDataForPatient",
      "outputs": [
        {
          "name": "",
          "type": "string"
        },
        {
          "name": "",
          "type": "string"
        },
        {
          "name": "",
          "type": "uint8"
        },
        {
          "name": "",
          "type": "string"
        },
        {
          "name": "",
          "type": "uint256"
        },
        {
          "name": "",
          "type": "uint256"
        },
        {
          "name": "",
          "type": "uint256"
        },
        {
          "name": "",
          "type": "uint256"
        }
      ]
    },
    {
      "anonymous": false,
      "inputs": [
        {
          "indexed": false,
          "name": "creator",
          "type": "address"
        }
      ],
      "name": "studyCreated",
      "type": "constructor",
      "payable": false,
      "stateMutability": "nonpayable"
    },
    {
      "anonymous": false,
      "inputs": [
        {
          "indexed": false,
          "name": "creator",
          "type": "address"
        }
      ],
      "name": "studyCreated",
      "type": "event"
    }
  ],
  "bytecode": "0x6060604052341561000f57600080fd5b336000806101000a81548173ffffffffffffffffffffffffffffffffffffffff021916908373ffffffffffffffffffffffffffffffffffffffff1602179055507f5970e982bfc6c1cfc9e97573bcab60a0f759b1a6ee9318db6d2a44cf68670fd46000809054906101000a900473ffffffffffffffffffffffffffffffffffffffff16604051808273ffffffffffffffffffffffffffffffffffffffff1673ffffffffffffffffffffffffffffffffffffffff16815260200191505060405180910390a16111d6806100e26000396000f300606060405260043610610083576000357c0100000000000000000000000000000000000000000000000000000000900463ffffffff168063027b728c1461008857806363d77520146101965780636d15272f146101e15780638bd8747514610236578063afff7966146102b2578063bd7be4901461030f578063ef9ffad1146103c1575b600080fd5b341561009357600080fd5b610194600480803573ffffffffffffffffffffffffffffffffffffffff1690602001909190803590602001908201803590602001908080601f0160208091040260200160405190810160405280939291908181526020018383808284378201915050505050509190803590602001908201803590602001908080601f0160208091040260200160405190810160405280939291908181526020018383808284378201915050505050509190803560ff1690602001909190803590602001908201803590602001908080601f01602080910402602001604051908101604052809392919081815260200183838082843782019150505050505091905050610574565b005b34156101a157600080fd5b6101df600480803573ffffffffffffffffffffffffffffffffffffffff169060200190919080359060200190919080359060200190919050506106d9565b005b34156101ec57600080fd5b6101f4610743565b604051808273ffffffffffffffffffffffffffffffffffffffff1673ffffffffffffffffffffffffffffffffffffffff16815260200191505060405180910390f35b341561024157600080fd5b6102b0600480803590602001908201803590602001908080601f0160208091040260200160405190810160405280939291908181526020018383808284378201915050505050509190803573ffffffffffffffffffffffffffffffffffffffff1690602001909190505061076c565b005b34156102bd57600080fd5b61030d600480803590602001908201803590602001908080601f01602080910402602001604051908101604052809392919081815260200183838082843782019150505050505091905050610874565b005b341561031a57600080fd5b610346600480803573ffffffffffffffffffffffffffffffffffffffff16906020019091905050610921565b6040518080602001828103825283818151815260200191508051906020019080838360005b8381101561038657808201518184015260208101905061036b565b50505050905090810190601f1680156103b35780820380516001836020036101000a031916815260200191505b509250505060405180910390f35b34156103cc57600080fd5b6103f8600480803573ffffffffffffffffffffffffffffffffffffffff16906020019091905050610949565b6040518080602001806020018960ff1660ff1681526020018060200188815260200187815260200186815260200185815260200184810384528c818151815260200191508051906020019080838360005b83811015610464578082015181840152602081019050610449565b50505050905090810190601f1680156104915780820380516001836020036101000a031916815260200191505b5084810383528b818151815260200191508051906020019080838360005b838110156104ca5780820151818401526020810190506104af565b50505050905090810190601f1680156104f75780820380516001836020036101000a031916815260200191505b50848103825289818151815260200191508051906020019080838360005b83811015610530578082015181840152602081019050610515565b50505050905090810190601f16801561055d5780820380516001836020036101000a031916815260200191505b509b50505050505050505050505060405180910390f35b61057c610ebf565b610584610efd565b61058c610f11565b6080604051908101604052808881526020018781526020018660ff16815260200185815250925060046040518059106105c25750595b90808252806020026020018201604052509150604080519081016040528084815260200183815250905080600160008a73ffffffffffffffffffffffffffffffffffffffff1673ffffffffffffffffffffffffffffffffffffffff1681526020019081526020016000206000820151816000016000820151816000019080519060200190610651929190610f38565b50602082015181600101908051906020019061066e929190610f38565b5060408201518160020160006101000a81548160ff021916908360ff16021790555060608201518160030190805190602001906106ac929190610f38565b50505060208201518160040190805190602001906106cb929190610fb8565b509050505050505050505050565b6000600160008573ffffffffffffffffffffffffffffffffffffffff1673ffffffffffffffffffffffffffffffffffffffff168152602001908152602001600020905081816004018481548110151561072e57fe5b90600052602060002090018190555050505050565b60008060009054906101000a900473ffffffffffffffffffffffffffffffffffffffff16905090565b610774611005565b60408051908101604052808373ffffffffffffffffffffffffffffffffffffffff168152602001848152509050600260003373ffffffffffffffffffffffffffffffffffffffff1673ffffffffffffffffffffffffffffffffffffffff16815260200190815260200160002080548060010182816107f2919061103b565b9160005260206000209060020201600083909190915060008201518160000160006101000a81548173ffffffffffffffffffffffffffffffffffffffff021916908373ffffffffffffffffffffffffffffffffffffffff160217905550602082015181600101908051906020019061086b929190610f38565b50505050505050565b336003826040518082805190602001908083835b6020831015156108ad5780518252602082019150602081019050602083039250610888565b6001836020036101000a038019825116818451168082178552505050505050905001915050908152602001604051809103902060006101000a81548173ffffffffffffffffffffffffffffffffffffffff021916908373ffffffffffffffffffffffffffffffffffffffff16021790555050565b61092961106d565b610931611005565b61093a83610c3e565b90508060200151915050919050565b61095161106d565b61095961106d565b600061096361106d565b6000806000806000600160008b73ffffffffffffffffffffffffffffffffffffffff1673ffffffffffffffffffffffffffffffffffffffff168152602001908152602001600020905080600001600001816000016001018260000160020160009054906101000a900460ff16836000016003018460040160008154811015156109e857fe5b906000526020600020900154856004016001815481101515610a0657fe5b906000526020600020900154866004016002815481101515610a2457fe5b906000526020600020900154876004016003815481101515610a4257fe5b906000526020600020900154878054600181600116156101000203166002900480601f016020809104026020016040519081016040528092919081815260200182805460018160011615610100020316600290048015610ae35780601f10610ab857610100808354040283529160200191610ae3565b820191906000526020600020905b815481529060010190602001808311610ac657829003601f168201915b50505050509750868054600181600116156101000203166002900480601f016020809104026020016040519081016040528092919081815260200182805460018160011615610100020316600290048015610b7f5780601f10610b5457610100808354040283529160200191610b7f565b820191906000526020600020905b815481529060010190602001808311610b6257829003601f168201915b50505050509650848054600181600116156101000203166002900480601f016020809104026020016040519081016040528092919081815260200182805460018160011615610100020316600290048015610c1b5780601f10610bf057610100808354040283529160200191610c1b565b820191906000526020600020905b815481529060010190602001808311610bfe57829003601f168201915b505050505094509850985098509850985098509850985050919395975091939597565b610c46611005565b60008090505b600260003373ffffffffffffffffffffffffffffffffffffffff1673ffffffffffffffffffffffffffffffffffffffff16815260200190815260200160002080549050811015610eb8578273ffffffffffffffffffffffffffffffffffffffff16600260003373ffffffffffffffffffffffffffffffffffffffff1673ffffffffffffffffffffffffffffffffffffffff16815260200190815260200160002082815481101515610cf957fe5b906000526020600020906002020160000160009054906101000a900473ffffffffffffffffffffffffffffffffffffffff1673ffffffffffffffffffffffffffffffffffffffff161415610eab57600260003373ffffffffffffffffffffffffffffffffffffffff1673ffffffffffffffffffffffffffffffffffffffff16815260200190815260200160002081815481101515610d9357fe5b90600052602060002090600202016040805190810160405290816000820160009054906101000a900473ffffffffffffffffffffffffffffffffffffffff1673ffffffffffffffffffffffffffffffffffffffff1673ffffffffffffffffffffffffffffffffffffffff168152602001600182018054600181600116156101000203166002900480601f016020809104026020016040519081016040528092919081815260200182805460018160011615610100020316600290048015610e9b5780601f10610e7057610100808354040283529160200191610e9b565b820191906000526020600020905b815481529060010190602001808311610e7e57829003601f168201915b5050505050815250509150610eb9565b8080600101915050610c4c565b5b50919050565b608060405190810160405280610ed3611081565b8152602001610ee0611081565b8152602001600060ff168152602001610ef7611081565b81525090565b602060405190810160405280600081525090565b60a060405190810160405280610f25611095565b8152602001610f326110d3565b81525090565b828054600181600116156101000203166002900490600052602060002090601f016020900481019282601f10610f7957805160ff1916838001178555610fa7565b82800160010185558215610fa7579182015b82811115610fa6578251825591602001919060010190610f8b565b5b509050610fb491906110e7565b5090565b828054828255906000526020600020908101928215610ff4579160200282015b82811115610ff3578251825591602001919060010190610fd8565b5b50905061100191906110e7565b5090565b6040805190810160405280600073ffffffffffffffffffffffffffffffffffffffff168152602001611035611081565b81525090565b81548183558181151161106857600202816002028360005260206000209182019101611067919061110c565b5b505050565b602060405190810160405280600081525090565b602060405190810160405280600081525090565b6080604051908101604052806110a9611081565b81526020016110b6611081565b8152602001600060ff1681526020016110cd611081565b81525090565b602060405190810160405280600081525090565b61110991905b808211156111055760008160009055506001016110ed565b5090565b90565b61115f91905b8082111561115b57600080820160006101000a81549073ffffffffffffffffffffffffffffffffffffffff02191690556001820160006111529190611162565b50600201611112565b5090565b90565b50805460018160011615610100020316600290046000825580601f1061118857506111a7565b601f0160209004906000526020600020908101906111a691906110e7565b5b505600a165627a7a7230582052aa8261a90527c895a7f65d2307cd422fcd455390678abb083d055878866d370029",
  "source": "pragma solidity ^0.4.0;\r\n\r\n/**\r\n * Description of the smart contract\r\n *\r\n * This is an example of a 4-week trial on 2 patients\r\n * For each patient a CT must provide the following\r\n * - A filled in questionaire upon enrollment\r\n * - Body temperature after the week 1\r\n * - Body temperature after the week 2\r\n * - Body temperature after the week 3\r\n * - Body temperature after the week 4\r\n */\r\n\r\ncontract SimpleStudy {\r\n\r\n    address studyOwner;\r\n\r\n    uint8 private constant MAX_PATIENTS = 2;\r\n\r\n    struct Patient {\r\n        address patientAddress;\r\n        string fullName;\r\n    }\r\n\r\n    struct Questionaire {\r\n        string firstName;\r\n        string lastName;\r\n        uint8 age;\r\n        string gender;\r\n    }\r\n\r\n    struct StudyData {\r\n        Questionaire questionaire;\r\n        uint[] tempData;\r\n    }\r\n\r\n    mapping(address => StudyData) private patientsData;\r\n    mapping(address => Patient[]) private patientsMap;\r\n    mapping(string => address) private providerMap;\r\n\r\n    // Events\r\n    event studyCreated(address creator);\r\n\r\n    function SimpleStudy() public {\r\n        studyOwner = msg.sender;\r\n        studyCreated(studyOwner);\r\n    }\r\n\r\n    // Getters\r\n    function getStudyOwner() public constant returns(address) {\r\n        return studyOwner;\r\n    }\r\n\r\n    function getPatient(address patientAddress) private constant returns(Patient) {\r\n        for (uint i = 0; i < patientsMap[msg.sender].length; i++) {\r\n            if (patientsMap[msg.sender][i].patientAddress == patientAddress) {\r\n                return patientsMap[msg.sender][i];\r\n            }\r\n        }\r\n    }\r\n\r\n    function getPatientName(address patientAddress) public constant returns(string) {\r\n        var patient = getPatient(patientAddress);\r\n        return patient.fullName;\r\n    }\r\n\r\n    function getStudyDataForPatient(address patientAddress) public constant returns(string, string, uint8, string, uint, uint, uint, uint) {\r\n        var patientStudyData = patientsData[patientAddress];\r\n        return (patientStudyData.questionaire.firstName, patientStudyData.questionaire.lastName, patientStudyData.questionaire.age, patientStudyData.questionaire.gender,\r\n            patientStudyData.tempData[0], patientStudyData.tempData[1], patientStudyData.tempData[2], patientStudyData.tempData[3]);\r\n    }\r\n\r\n    // Setters\r\n    function addProvider(string userName) public {\r\n        providerMap[userName] = msg.sender;\r\n    }\r\n\r\n    function addPatient(string fullName, address patientAddress) public {\r\n        var newPatient = Patient(patientAddress, fullName);\r\n        patientsMap[msg.sender].push(newPatient);\r\n    }\r\n\r\n    function submitQuestionaireForPatient(address patientAddress, string firstName, string lastName, uint8 age, string gender) public {\r\n        var newQuestionaire = Questionaire(firstName, lastName, age, gender);\r\n        uint[] memory newTempData = new uint[](4);\r\n        var newStudyData = StudyData(newQuestionaire, newTempData);\r\n        patientsData[patientAddress] = newStudyData;\r\n    }\r\n\r\n    function submitTemperature(address patientAddress, uint weekNumber, uint tempData) public {\r\n        var studyData = patientsData[patientAddress];\r\n        studyData.tempData[weekNumber] = tempData;\r\n    }\r\n}",
  "sourcePath": "C:\\Users\\mgorbachev\\Documents\\private\\smart-contract-local\\contracts\\SimpleStudy.sol",
  "compiler": {
    "name": "solc",
    "version": "0.4.18+commit.9cf6e910.Emscripten.clang"
  },
  "schemaVersion": "1.0.1",
  "updatedAt": "2017-11-20T17:38:21.279Z"
}